{
  "_format": "hh-sol-artifact-1",
  "contractName": "SmartHomeSecurity",
  "sourceName": "contracts/SmartHomeContract.sol",
  "abi": [
    {
      "inputs": [],
      "stateMutability": "nonpayable",
      "type": "constructor"
    },
    {
      "inputs": [
        {
          "internalType": "string",
          "name": "username",
          "type": "string"
        },
        {
          "internalType": "address",
          "name": "userAddress",
          "type": "address"
        },
        {
          "internalType": "address",
          "name": "presentUser",
          "type": "address"
        }
      ],
      "name": "addUser",
      "outputs": [],
      "stateMutability": "nonpayable",
      "type": "function"
    },
    {
      "inputs": [],
      "name": "getLogs",
      "outputs": [
        {
          "components": [
            {
              "internalType": "address",
              "name": "user",
              "type": "address"
            },
            {
              "internalType": "uint256",
              "name": "timestamp",
              "type": "uint256"
            },
            {
              "internalType": "string",
              "name": "deviceID",
              "type": "string"
            },
            {
              "internalType": "string",
              "name": "action",
              "type": "string"
            },
            {
              "internalType": "string",
              "name": "username",
              "type": "string"
            }
          ],
          "internalType": "struct SmartHomeSecurity.AccessLog[]",
          "name": "",
          "type": "tuple[]"
        }
      ],
      "stateMutability": "view",
      "type": "function"
    },
    {
      "inputs": [
        {
          "internalType": "string",
          "name": "deviceID",
          "type": "string"
        }
      ],
      "name": "getLogsByDevice",
      "outputs": [
        {
          "components": [
            {
              "internalType": "address",
              "name": "user",
              "type": "address"
            },
            {
              "internalType": "uint256",
              "name": "timestamp",
              "type": "uint256"
            },
            {
              "internalType": "string",
              "name": "deviceID",
              "type": "string"
            },
            {
              "internalType": "string",
              "name": "action",
              "type": "string"
            },
            {
              "internalType": "string",
              "name": "username",
              "type": "string"
            }
          ],
          "internalType": "struct SmartHomeSecurity.AccessLog[]",
          "name": "",
          "type": "tuple[]"
        }
      ],
      "stateMutability": "view",
      "type": "function"
    },
    {
      "inputs": [
        {
          "internalType": "string",
          "name": "username",
          "type": "string"
        }
      ],
      "name": "getLogsByUser",
      "outputs": [
        {
          "components": [
            {
              "internalType": "address",
              "name": "user",
              "type": "address"
            },
            {
              "internalType": "uint256",
              "name": "timestamp",
              "type": "uint256"
            },
            {
              "internalType": "string",
              "name": "deviceID",
              "type": "string"
            },
            {
              "internalType": "string",
              "name": "action",
              "type": "string"
            },
            {
              "internalType": "string",
              "name": "username",
              "type": "string"
            }
          ],
          "internalType": "struct SmartHomeSecurity.AccessLog[]",
          "name": "",
          "type": "tuple[]"
        }
      ],
      "stateMutability": "view",
      "type": "function"
    },
    {
      "inputs": [],
      "name": "getPresentUserAddress",
      "outputs": [
        {
          "internalType": "address",
          "name": "",
          "type": "address"
        }
      ],
      "stateMutability": "view",
      "type": "function"
    },
    {
      "inputs": [
        {
          "internalType": "string",
          "name": "deviceID",
          "type": "string"
        },
        {
          "internalType": "string",
          "name": "action",
          "type": "string"
        },
        {
          "internalType": "string",
          "name": "username",
          "type": "string"
        }
      ],
      "name": "logAccess",
      "outputs": [],
      "stateMutability": "nonpayable",
      "type": "function"
    },
    {
      "inputs": [],
      "name": "owner",
      "outputs": [
        {
          "internalType": "address",
          "name": "",
          "type": "address"
        }
      ],
      "stateMutability": "view",
      "type": "function"
    },
    {
      "inputs": [
        {
          "internalType": "string",
          "name": "username",
          "type": "string"
        },
        {
          "internalType": "address",
          "name": "presentUser",
          "type": "address"
        }
      ],
      "name": "revokeUserAccess",
      "outputs": [],
      "stateMutability": "nonpayable",
      "type": "function"
    },
    {
      "inputs": [
        {
          "internalType": "string",
          "name": "",
          "type": "string"
        }
      ],
      "name": "userAccess",
      "outputs": [
        {
          "internalType": "bool",
          "name": "",
          "type": "bool"
        }
      ],
      "stateMutability": "view",
      "type": "function"
    },
    {
      "inputs": [
        {
          "internalType": "string",
          "name": "",
          "type": "string"
        }
      ],
      "name": "userAddresses",
      "outputs": [
        {
          "internalType": "address",
          "name": "",
          "type": "address"
        }
      ],
      "stateMutability": "view",
      "type": "function"
    }
  ],
  "bytecode": "0x608060405234801561001057600080fd5b5033600360006101000a81548173ffffffffffffffffffffffffffffffffffffffff021916908373ffffffffffffffffffffffffffffffffffffffff160217905550611f3e806100616000396000f3fe608060405234801561001057600080fd5b506004361061009e5760003560e01c8063cbcee4f011610066578063cbcee4f014610159578063e8968e8914610189578063f41d4ff0146101a7578063f9088acb146101d7578063fe290ccb146101f35761009e565b806323e3e8c1146100a35780636e29a203146100bf5780638da5cb5b146100ef578063a71faa821461010d578063c0cbd4ec1461013d575b600080fd5b6100bd60048036038101906100b8919061166f565b610211565b005b6100d960048036038101906100d491906115da565b610452565b6040516100e69190611a7c565b60405180910390f35b6100f761049b565b6040516101049190611a7c565b60405180910390f35b610127600480360381019061012291906115da565b6104c1565b6040516101349190611a97565b60405180910390f35b610157600480360381019061015291906116d6565b6108d8565b005b610173600480360381019061016e91906115da565b610a61565b6040516101809190611a97565b60405180910390f35b610191610e78565b60405161019e9190611a7c565b60405180910390f35b6101c160048036038101906101bc91906115da565b610e80565b6040516101ce9190611ab9565b60405180910390f35b6101f160048036038101906101ec919061161b565b610eb6565b005b6101fb61104a565b6040516102089190611a97565b60405180910390f35b600360009054906101000a900473ffffffffffffffffffffffffffffffffffffffff1673ffffffffffffffffffffffffffffffffffffffff168173ffffffffffffffffffffffffffffffffffffffff16146102a1576040517f08c379a000000000000000000000000000000000000000000000000000000000815260040161029890611b14565b60405180910390fd5b6001836040516102b19190611a4e565b908152602001604051809103902060009054906101000a900460ff161561030d576040517f08c379a000000000000000000000000000000000000000000000000000000000815260040161030490611b34565b60405180910390fd5b600073ffffffffffffffffffffffffffffffffffffffff166002846040516103359190611a4e565b908152602001604051809103902060009054906101000a900473ffffffffffffffffffffffffffffffffffffffff1673ffffffffffffffffffffffffffffffffffffffff16146103ba576040517f08c379a00000000000000000000000000000000000000000000000000000000081526004016103b190611b54565b60405180910390fd5b600180846040516103cb9190611a4e565b908152602001604051809103902060006101000a81548160ff021916908315150217905550816002846040516104019190611a4e565b908152602001604051809103902060006101000a81548173ffffffffffffffffffffffffffffffffffffffff021916908373ffffffffffffffffffffffffffffffffffffffff160217905550505050565b6002818051602081018201805184825260208301602085012081835280955050505050506000915054906101000a900473ffffffffffffffffffffffffffffffffffffffff1681565b600360009054906101000a900473ffffffffffffffffffffffffffffffffffffffff1681565b606060006104ce836112bf565b905060008167ffffffffffffffff811115610512577f4e487b7100000000000000000000000000000000000000000000000000000000600052604160045260246000fd5b60405190808252806020026020018201604052801561054b57816020015b610538611475565b8152602001906001900390816105305790505b5090506000805b6000805490508110156108cc57856040516020016105709190611a4e565b60405160208183030381529060405280519060200120600082815481106105c0577f4e487b7100000000000000000000000000000000000000000000000000000000600052603260045260246000fd5b90600052602060002090600502016004016040516020016105e19190611a65565b6040516020818303038152906040528051906020012014156108b95760008181548110610637577f4e487b7100000000000000000000000000000000000000000000000000000000600052603260045260246000fd5b90600052602060002090600502016040518060a00160405290816000820160009054906101000a900473ffffffffffffffffffffffffffffffffffffffff1673ffffffffffffffffffffffffffffffffffffffff1673ffffffffffffffffffffffffffffffffffffffff168152602001600182015481526020016002820180546106c090611cda565b80601f01602080910402602001604051908101604052809291908181526020018280546106ec90611cda565b80156107395780601f1061070e57610100808354040283529160200191610739565b820191906000526020600020905b81548152906001019060200180831161071c57829003601f168201915b5050505050815260200160038201805461075290611cda565b80601f016020809104026020016040519081016040528092919081815260200182805461077e90611cda565b80156107cb5780601f106107a0576101008083540402835291602001916107cb565b820191906000526020600020905b8154815290600101906020018083116107ae57829003601f168201915b505050505081526020016004820180546107e490611cda565b80601f016020809104026020016040519081016040528092919081815260200182805461081090611cda565b801561085d5780601f106108325761010080835404028352916020019161085d565b820191906000526020600020905b81548152906001019060200180831161084057829003601f168201915b50505050508152505083838151811061089f577f4e487b7100000000000000000000000000000000000000000000000000000000600052603260045260246000fd5b602002602001018190525081806108b590611d3d565b9250505b80806108c490611d3d565b915050610552565b50819350505050919050565b600115156001826040516108ec9190611a4e565b908152602001604051809103902060009054906101000a900460ff1615151461094a576040517f08c379a000000000000000000000000000000000000000000000000000000000815260040161094190611ad4565b60405180910390fd5b60006040518060a001604052803373ffffffffffffffffffffffffffffffffffffffff16815260200142815260200185815260200184815260200183815250908060018154018082558091505060019003906000526020600020906005020160009091909190915060008201518160000160006101000a81548173ffffffffffffffffffffffffffffffffffffffff021916908373ffffffffffffffffffffffffffffffffffffffff160217905550602082015181600101556040820151816002019080519060200190610a1f9291906114ba565b506060820151816003019080519060200190610a3c9291906114ba565b506080820151816004019080519060200190610a599291906114ba565b505050505050565b60606000610a6e8361139a565b905060008167ffffffffffffffff811115610ab2577f4e487b7100000000000000000000000000000000000000000000000000000000600052604160045260246000fd5b604051908082528060200260200182016040528015610aeb57816020015b610ad8611475565b815260200190600190039081610ad05790505b5090506000805b600080549050811015610e6c5785604051602001610b109190611a4e565b6040516020818303038152906040528051906020012060008281548110610b60577f4e487b7100000000000000000000000000000000000000000000000000000000600052603260045260246000fd5b9060005260206000209060050201600201604051602001610b819190611a65565b604051602081830303815290604052805190602001201415610e595760008181548110610bd7577f4e487b7100000000000000000000000000000000000000000000000000000000600052603260045260246000fd5b90600052602060002090600502016040518060a00160405290816000820160009054906101000a900473ffffffffffffffffffffffffffffffffffffffff1673ffffffffffffffffffffffffffffffffffffffff1673ffffffffffffffffffffffffffffffffffffffff16815260200160018201548152602001600282018054610c6090611cda565b80601f0160208091040260200160405190810160405280929190818152602001828054610c8c90611cda565b8015610cd95780601f10610cae57610100808354040283529160200191610cd9565b820191906000526020600020905b815481529060010190602001808311610cbc57829003601f168201915b50505050508152602001600382018054610cf290611cda565b80601f0160208091040260200160405190810160405280929190818152602001828054610d1e90611cda565b8015610d6b5780601f10610d4057610100808354040283529160200191610d6b565b820191906000526020600020905b815481529060010190602001808311610d4e57829003601f168201915b50505050508152602001600482018054610d8490611cda565b80601f0160208091040260200160405190810160405280929190818152602001828054610db090611cda565b8015610dfd5780601f10610dd257610100808354040283529160200191610dfd565b820191906000526020600020905b815481529060010190602001808311610de057829003601f168201915b505050505081525050838381518110610e3f577f4e487b7100000000000000000000000000000000000000000000000000000000600052603260045260246000fd5b60200260200101819052508180610e5590611d3d565b9250505b8080610e6490611d3d565b915050610af2565b50819350505050919050565b600033905090565b6001818051602081018201805184825260208301602085012081835280955050505050506000915054906101000a900460ff1681565b600360009054906101000a900473ffffffffffffffffffffffffffffffffffffffff1673ffffffffffffffffffffffffffffffffffffffff168173ffffffffffffffffffffffffffffffffffffffff1614610f46576040517f08c379a0000000000000000000000000000000000000000000000000000000008152600401610f3d90611b14565b60405180910390fd5b600182604051610f569190611a4e565b908152602001604051809103902060009054906101000a900460ff16610fb1576040517f08c379a0000000000000000000000000000000000000000000000000000000008152600401610fa890611af4565b60405180910390fd5b6000600183604051610fc39190611a4e565b908152602001604051809103902060006101000a81548160ff0219169083151502179055506000600283604051610ffa9190611a4e565b908152602001604051809103902060006101000a81548173ffffffffffffffffffffffffffffffffffffffff021916908373ffffffffffffffffffffffffffffffffffffffff1602179055505050565b60606000805480602002602001604051908101604052809291908181526020016000905b828210156112b657838290600052602060002090600502016040518060a00160405290816000820160009054906101000a900473ffffffffffffffffffffffffffffffffffffffff1673ffffffffffffffffffffffffffffffffffffffff1673ffffffffffffffffffffffffffffffffffffffff1681526020016001820154815260200160028201805461110190611cda565b80601f016020809104026020016040519081016040528092919081815260200182805461112d90611cda565b801561117a5780601f1061114f5761010080835404028352916020019161117a565b820191906000526020600020905b81548152906001019060200180831161115d57829003601f168201915b5050505050815260200160038201805461119390611cda565b80601f01602080910402602001604051908101604052809291908181526020018280546111bf90611cda565b801561120c5780601f106111e15761010080835404028352916020019161120c565b820191906000526020600020905b8154815290600101906020018083116111ef57829003601f168201915b5050505050815260200160048201805461122590611cda565b80601f016020809104026020016040519081016040528092919081815260200182805461125190611cda565b801561129e5780601f106112735761010080835404028352916020019161129e565b820191906000526020600020905b81548152906001019060200180831161128157829003601f168201915b5050505050815250508152602001906001019061106e565b50505050905090565b600080600090505b60008054905081101561139457826040516020016112e59190611a4e565b6040516020818303038152906040528051906020012060008281548110611335577f4e487b7100000000000000000000000000000000000000000000000000000000600052603260045260246000fd5b90600052602060002090600502016004016040516020016113569190611a65565b60405160208183030381529060405280519060200120141561138157818061137d90611d3d565b9250505b808061138c90611d3d565b9150506112c7565b50919050565b600080600090505b60008054905081101561146f57826040516020016113c09190611a4e565b6040516020818303038152906040528051906020012060008281548110611410577f4e487b7100000000000000000000000000000000000000000000000000000000600052603260045260246000fd5b90600052602060002090600502016002016040516020016114319190611a65565b60405160208183030381529060405280519060200120141561145c57818061145890611d3d565b9250505b808061146790611d3d565b9150506113a2565b50919050565b6040518060a00160405280600073ffffffffffffffffffffffffffffffffffffffff168152602001600081526020016060815260200160608152602001606081525090565b8280546114c690611cda565b90600052602060002090601f0160209004810192826114e8576000855561152f565b82601f1061150157805160ff191683800117855561152f565b8280016001018555821561152f579182015b8281111561152e578251825591602001919060010190611513565b5b50905061153c9190611540565b5090565b5b80821115611559576000816000905550600101611541565b5090565b600061157061156b84611b99565b611b74565b90508281526020810184848401111561158857600080fd5b611593848285611c98565b509392505050565b6000813590506115aa81611ef1565b92915050565b600082601f8301126115c157600080fd5b81356115d184826020860161155d565b91505092915050565b6000602082840312156115ec57600080fd5b600082013567ffffffffffffffff81111561160657600080fd5b611612848285016115b0565b91505092915050565b6000806040838503121561162e57600080fd5b600083013567ffffffffffffffff81111561164857600080fd5b611654858286016115b0565b92505060206116658582860161159b565b9150509250929050565b60008060006060848603121561168457600080fd5b600084013567ffffffffffffffff81111561169e57600080fd5b6116aa868287016115b0565b93505060206116bb8682870161159b565b92505060406116cc8682870161159b565b9150509250925092565b6000806000606084860312156116eb57600080fd5b600084013567ffffffffffffffff81111561170557600080fd5b611711868287016115b0565b935050602084013567ffffffffffffffff81111561172e57600080fd5b61173a868287016115b0565b925050604084013567ffffffffffffffff81111561175757600080fd5b611763868287016115b0565b9150509250925092565b600061177983836119bb565b905092915050565b61178a81611c50565b82525050565b61179981611c50565b82525050565b60006117aa82611bef565b6117b48185611c12565b9350836020820285016117c685611bca565b8060005b8581101561180257848403895281516117e3858261176d565b94506117ee83611c05565b925060208a019950506001810190506117ca565b50829750879550505050505092915050565b61181d81611c62565b82525050565b600061182e82611bfa565b6118388185611c23565b9350611848818560208601611ca7565b61185181611e13565b840191505092915050565b600061186782611bfa565b6118718185611c45565b9350611881818560208601611ca7565b80840191505092915050565b6000815461189a81611cda565b6118a48186611c45565b945060018216600081146118bf57600181146118d057611903565b60ff19831686528186019350611903565b6118d985611bda565b60005b838110156118fb578154818901526001820191506020810190506118dc565b838801955050505b50505092915050565b6000611919601183611c34565b915061192482611e24565b602082019050919050565b600061193c601983611c34565b915061194782611e4d565b602082019050919050565b600061195f601683611c34565b915061196a82611e76565b602082019050919050565b6000611982601783611c34565b915061198d82611e9f565b602082019050919050565b60006119a5601d83611c34565b91506119b082611ec8565b602082019050919050565b600060a0830160008301516119d36000860182611781565b5060208301516119e66020860182611a3f565b50604083015184820360408601526119fe8282611823565b91505060608301518482036060860152611a188282611823565b91505060808301518482036080860152611a328282611823565b9150508091505092915050565b611a4881611c8e565b82525050565b6000611a5a828461185c565b915081905092915050565b6000611a71828461188d565b915081905092915050565b6000602082019050611a916000830184611790565b92915050565b60006020820190508181036000830152611ab1818461179f565b905092915050565b6000602082019050611ace6000830184611814565b92915050565b60006020820190508181036000830152611aed8161190c565b9050919050565b60006020820190508181036000830152611b0d8161192f565b9050919050565b60006020820190508181036000830152611b2d81611952565b9050919050565b60006020820190508181036000830152611b4d81611975565b9050919050565b60006020820190508181036000830152611b6d81611998565b9050919050565b6000611b7e611b8f565b9050611b8a8282611d0c565b919050565b6000604051905090565b600067ffffffffffffffff821115611bb457611bb3611de4565b5b611bbd82611e13565b9050602081019050919050565b6000819050602082019050919050565b60008190508160005260206000209050919050565b600081519050919050565b600081519050919050565b6000602082019050919050565b600082825260208201905092915050565b600082825260208201905092915050565b600082825260208201905092915050565b600081905092915050565b6000611c5b82611c6e565b9050919050565b60008115159050919050565b600073ffffffffffffffffffffffffffffffffffffffff82169050919050565b6000819050919050565b82818337600083830152505050565b60005b83811015611cc5578082015181840152602081019050611caa565b83811115611cd4576000848401525b50505050565b60006002820490506001821680611cf257607f821691505b60208210811415611d0657611d05611db5565b5b50919050565b611d1582611e13565b810181811067ffffffffffffffff82111715611d3457611d33611de4565b5b80604052505050565b6000611d4882611c8e565b91507fffffffffffffffffffffffffffffffffffffffffffffffffffffffffffffffff821415611d7b57611d7a611d86565b5b600182019050919050565b7f4e487b7100000000000000000000000000000000000000000000000000000000600052601160045260246000fd5b7f4e487b7100000000000000000000000000000000000000000000000000000000600052602260045260246000fd5b7f4e487b7100000000000000000000000000000000000000000000000000000000600052604160045260246000fd5b6000601f19601f8301169050919050565b7f556e617574686f72697a65642075736572000000000000000000000000000000600082015250565b7f5573657220646f6573206e6f7420686176652061636365737300000000000000600082015250565b7f4f6e6c79206f776e65722063616e206578656375746500000000000000000000600082015250565b7f5573657220616c72656164792068617320616363657373000000000000000000600082015250565b7f55736572206164647265737320616c72656164792061737369676e6564000000600082015250565b611efa81611c50565b8114611f0557600080fd5b5056fea26469706673582212208c0d1a80f51d2390a6e6d4bfd63b351b4345f52299f3c90666758b554d29d76a64736f6c63430008040033",
  "linkReferences": {},
  "deployedLinkReferences": {}
}