{"contracts/SmartHomeSecurity.sol":{"SmartHomeSecurity":{"abi":[{"anonymous":false,"inputs":[{"indexed":true,"internalType":"address","name":"user","type":"address"},{"indexed":false,"internalType":"uint256","name":"timestamp","type":"uint256"},{"indexed":false,"internalType":"string","name":"deviceID","type":"string"},{"indexed":false,"internalType":"string","name":"action","type":"string"},{"indexed":false,"internalType":"string","name":"username","type":"string"}],"name":"AccessAttempt","type":"event"},{"inputs":[],"name":"getLogs","outputs":[{"components":[{"internalType":"address","name":"user","type":"address"},{"internalType":"uint256","name":"timestamp","type":"uint256"},{"internalType":"string","name":"deviceID","type":"string"},{"internalType":"string","name":"action","type":"string"},{"internalType":"string","name":"username","type":"string"}],"internalType":"struct SmartHomeSecurity.AccessLog[]","name":"","type":"tuple[]"}],"stateMutability":"view","type":"function"},{"inputs":[{"internalType":"address","name":"user","type":"address"}],"name":"getUsername","outputs":[{"internalType":"string","name":"","type":"string"}],"stateMutability":"view","type":"function"},{"inputs":[{"internalType":"string","name":"deviceID","type":"string"},{"internalType":"string","name":"action","type":"string"}],"name":"logAccess","outputs":[],"stateMutability":"nonpayable","type":"function"},{"inputs":[{"internalType":"uint256","name":"","type":"uint256"}],"name":"logs","outputs":[{"internalType":"address","name":"user","type":"address"},{"internalType":"uint256","name":"timestamp","type":"uint256"},{"internalType":"string","name":"deviceID","type":"string"},{"internalType":"string","name":"action","type":"string"},{"internalType":"string","name":"username","type":"string"}],"stateMutability":"view","type":"function"},{"inputs":[{"internalType":"string","name":"_username","type":"string"}],"name":"setUsername","outputs":[],"stateMutability":"nonpayable","type":"function"},{"inputs":[{"internalType":"address","name":"","type":"address"}],"name":"usernames","outputs":[{"internalType":"string","name":"","type":"string"}],"stateMutability":"view","type":"function"}],"evm":{"bytecode":{"linkReferences":{},"object":"608060405234801561001057600080fd5b50611128806100206000396000f3fe608060405234801561001057600080fd5b50600436106100625760003560e01c8063ce43c03214610067578063d56812bb14610097578063e79899bd146100b3578063ed59313a146100e7578063ee91877c14610103578063fe290ccb14610133575b600080fd5b610081600480360381019061007c9190610af8565b610151565b60405161008e9190610e3c565b60405180910390f35b6100b160048036038101906100ac9190610b62565b610222565b005b6100cd60048036038101906100c89190610bce565b610459565b6040516100de959493929190610db2565b60405180910390f35b61010160048036038101906100fc9190610b21565b610657565b005b61011d60048036038101906101189190610af8565b6106ae565b60405161012a9190610e3c565b60405180910390f35b61013b61074e565b6040516101489190610e1a565b60405180910390f35b6060600160008373ffffffffffffffffffffffffffffffffffffffff1673ffffffffffffffffffffffffffffffffffffffff168152602001908152602001600020805461019d90610ff2565b80601f01602080910402602001604051908101604052809291908181526020018280546101c990610ff2565b80156102165780601f106101eb57610100808354040283529160200191610216565b820191906000526020600020905b8154815290600101906020018083116101f957829003601f168201915b50505050509050919050565b6000600160003373ffffffffffffffffffffffffffffffffffffffff1673ffffffffffffffffffffffffffffffffffffffff168152602001908152602001600020805461026e90610ff2565b80601f016020809104026020016040519081016040528092919081815260200182805461029a90610ff2565b80156102e75780601f106102bc576101008083540402835291602001916102e7565b820191906000526020600020905b8154815290600101906020018083116102ca57829003601f168201915b5050505050905060006040518060a001604052803373ffffffffffffffffffffffffffffffffffffffff16815260200142815260200185815260200184815260200183815250908060018154018082558091505060019003906000526020600020906005020160009091909190915060008201518160000160006101000a81548173ffffffffffffffffffffffffffffffffffffffff021916908373ffffffffffffffffffffffffffffffffffffffff1602179055506020820151816001015560408201518160020190805190602001906103c39291906109c3565b5060608201518160030190805190602001906103e09291906109c3565b5060808201518160040190805190602001906103fd9291906109c3565b5050503373ffffffffffffffffffffffffffffffffffffffff167fee3d00cfeabc7c60f5c3a753b0eb20bba2e53f7676e3aa13287bf72425b072824285858560405161044c9493929190610e5e565b60405180910390a2505050565b6000818154811061046957600080fd5b90600052602060002090600502016000915090508060000160009054906101000a900473ffffffffffffffffffffffffffffffffffffffff16908060010154908060020180546104b890610ff2565b80601f01602080910402602001604051908101604052809291908181526020018280546104e490610ff2565b80156105315780601f1061050657610100808354040283529160200191610531565b820191906000526020600020905b81548152906001019060200180831161051457829003601f168201915b50505050509080600301805461054690610ff2565b80601f016020809104026020016040519081016040528092919081815260200182805461057290610ff2565b80156105bf5780601f10610594576101008083540402835291602001916105bf565b820191906000526020600020905b8154815290600101906020018083116105a257829003601f168201915b5050505050908060040180546105d490610ff2565b80601f016020809104026020016040519081016040528092919081815260200182805461060090610ff2565b801561064d5780601f106106225761010080835404028352916020019161064d565b820191906000526020600020905b81548152906001019060200180831161063057829003601f168201915b5050505050905085565b80600160003373ffffffffffffffffffffffffffffffffffffffff1673ffffffffffffffffffffffffffffffffffffffff16815260200190815260200160002090805190602001906106aa9291906109c3565b5050565b600160205280600052604060002060009150905080546106cd90610ff2565b80601f01602080910402602001604051908101604052809291908181526020018280546106f990610ff2565b80156107465780601f1061071b57610100808354040283529160200191610746565b820191906000526020600020905b81548152906001019060200180831161072957829003601f168201915b505050505081565b60606000805480602002602001604051908101604052809291908181526020016000905b828210156109ba57838290600052602060002090600502016040518060a00160405290816000820160009054906101000a900473ffffffffffffffffffffffffffffffffffffffff1673ffffffffffffffffffffffffffffffffffffffff1673ffffffffffffffffffffffffffffffffffffffff1681526020016001820154815260200160028201805461080590610ff2565b80601f016020809104026020016040519081016040528092919081815260200182805461083190610ff2565b801561087e5780601f106108535761010080835404028352916020019161087e565b820191906000526020600020905b81548152906001019060200180831161086157829003601f168201915b5050505050815260200160038201805461089790610ff2565b80601f01602080910402602001604051908101604052809291908181526020018280546108c390610ff2565b80156109105780601f106108e557610100808354040283529160200191610910565b820191906000526020600020905b8154815290600101906020018083116108f357829003601f168201915b5050505050815260200160048201805461092990610ff2565b80601f016020809104026020016040519081016040528092919081815260200182805461095590610ff2565b80156109a25780601f10610977576101008083540402835291602001916109a2565b820191906000526020600020905b81548152906001019060200180831161098557829003601f168201915b50505050508152505081526020019060010190610772565b50505050905090565b8280546109cf90610ff2565b90600052602060002090601f0160209004810192826109f15760008555610a38565b82601f10610a0a57805160ff1916838001178555610a38565b82800160010185558215610a38579182015b82811115610a37578251825591602001919060010190610a1c565b5b509050610a459190610a49565b5090565b5b80821115610a62576000816000905550600101610a4a565b5090565b6000610a79610a7484610edd565b610eb8565b905082815260208101848484011115610a9157600080fd5b610a9c848285610fb0565b509392505050565b600081359050610ab3816110c4565b92915050565b600082601f830112610aca57600080fd5b8135610ada848260208601610a66565b91505092915050565b600081359050610af2816110db565b92915050565b600060208284031215610b0a57600080fd5b6000610b1884828501610aa4565b91505092915050565b600060208284031215610b3357600080fd5b600082013567ffffffffffffffff811115610b4d57600080fd5b610b5984828501610ab9565b91505092915050565b60008060408385031215610b7557600080fd5b600083013567ffffffffffffffff811115610b8f57600080fd5b610b9b85828601610ab9565b925050602083013567ffffffffffffffff811115610bb857600080fd5b610bc485828601610ab9565b9150509250929050565b600060208284031215610be057600080fd5b6000610bee84828501610ae3565b91505092915050565b6000610c038383610d10565b905092915050565b610c1481610f74565b82525050565b610c2381610f74565b82525050565b6000610c3482610f1e565b610c3e8185610f41565b935083602082028501610c5085610f0e565b8060005b85811015610c8c5784840389528151610c6d8582610bf7565b9450610c7883610f34565b925060208a01995050600181019050610c54565b50829750879550505050505092915050565b6000610ca982610f29565b610cb38185610f52565b9350610cc3818560208601610fbf565b610ccc816110b3565b840191505092915050565b6000610ce282610f29565b610cec8185610f63565b9350610cfc818560208601610fbf565b610d05816110b3565b840191505092915050565b600060a083016000830151610d286000860182610c0b565b506020830151610d3b6020860182610d94565b5060408301518482036040860152610d538282610c9e565b91505060608301518482036060860152610d6d8282610c9e565b91505060808301518482036080860152610d878282610c9e565b9150508091505092915050565b610d9d81610fa6565b82525050565b610dac81610fa6565b82525050565b600060a082019050610dc76000830188610c1a565b610dd46020830187610da3565b8181036040830152610de68186610cd7565b90508181036060830152610dfa8185610cd7565b90508181036080830152610e0e8184610cd7565b90509695505050505050565b60006020820190508181036000830152610e348184610c29565b905092915050565b60006020820190508181036000830152610e568184610cd7565b905092915050565b6000608082019050610e736000830187610da3565b8181036020830152610e858186610cd7565b90508181036040830152610e998185610cd7565b90508181036060830152610ead8184610cd7565b905095945050505050565b6000610ec2610ed3565b9050610ece8282611024565b919050565b6000604051905090565b600067ffffffffffffffff821115610ef857610ef7611084565b5b610f01826110b3565b9050602081019050919050565b6000819050602082019050919050565b600081519050919050565b600081519050919050565b6000602082019050919050565b600082825260208201905092915050565b600082825260208201905092915050565b600082825260208201905092915050565b6000610f7f82610f86565b9050919050565b600073ffffffffffffffffffffffffffffffffffffffff82169050919050565b6000819050919050565b82818337600083830152505050565b60005b83811015610fdd578082015181840152602081019050610fc2565b83811115610fec576000848401525b50505050565b6000600282049050600182168061100a57607f821691505b6020821081141561101e5761101d611055565b5b50919050565b61102d826110b3565b810181811067ffffffffffffffff8211171561104c5761104b611084565b5b80604052505050565b7f4e487b7100000000000000000000000000000000000000000000000000000000600052602260045260246000fd5b7f4e487b7100000000000000000000000000000000000000000000000000000000600052604160045260246000fd5b6000601f19601f8301169050919050565b6110cd81610f74565b81146110d857600080fd5b50565b6110e481610fa6565b81146110ef57600080fd5b5056fea26469706673582212200c525dce320ab83d7036ee1f184ef4cc0f31d306ecc121da9448c2e7de09d71a64736f6c63430008040033","opcodes":"PUSH1 0x80 PUSH1 0x40 MSTORE CALLVALUE DUP1 ISZERO PUSH2 0x10 JUMPI PUSH1 0x0 DUP1 REVERT JUMPDEST POP PUSH2 0x1128 DUP1 PUSH2 0x20 PUSH1 0x0 CODECOPY PUSH1 0x0 RETURN INVALID PUSH1 0x80 PUSH1 0x40 MSTORE CALLVALUE DUP1 ISZERO PUSH2 0x10 JUMPI PUSH1 0x0 DUP1 REVERT JUMPDEST POP PUSH1 0x4 CALLDATASIZE LT PUSH2 0x62 JUMPI PUSH1 0x0 CALLDATALOAD PUSH1 0xE0 SHR DUP1 PUSH4 0xCE43C032 EQ PUSH2 0x67 JUMPI DUP1 PUSH4 0xD56812BB EQ PUSH2 0x97 JUMPI DUP1 PUSH4 0xE79899BD EQ PUSH2 0xB3 JUMPI DUP1 PUSH4 0xED59313A EQ PUSH2 0xE7 JUMPI DUP1 PUSH4 0xEE91877C EQ PUSH2 0x103 JUMPI DUP1 PUSH4 0xFE290CCB EQ PUSH2 0x133 JUMPI JUMPDEST PUSH1 0x0 DUP1 REVERT JUMPDEST PUSH2 0x81 PUSH1 0x4 DUP1 CALLDATASIZE SUB DUP2 ADD SWAP1 PUSH2 0x7C SWAP2 SWAP1 PUSH2 0xAF8 JUMP JUMPDEST PUSH2 0x151 JUMP JUMPDEST PUSH1 0x40 MLOAD PUSH2 0x8E SWAP2 SWAP1 PUSH2 0xE3C JUMP JUMPDEST PUSH1 0x40 MLOAD DUP1 SWAP2 SUB SWAP1 RETURN JUMPDEST PUSH2 0xB1 PUSH1 0x4 DUP1 CALLDATASIZE SUB DUP2 ADD SWAP1 PUSH2 0xAC SWAP2 SWAP1 PUSH2 0xB62 JUMP JUMPDEST PUSH2 0x222 JUMP JUMPDEST STOP JUMPDEST PUSH2 0xCD PUSH1 0x4 DUP1 CALLDATASIZE SUB DUP2 ADD SWAP1 PUSH2 0xC8 SWAP2 SWAP1 PUSH2 0xBCE JUMP JUMPDEST PUSH2 0x459 JUMP JUMPDEST PUSH1 0x40 MLOAD PUSH2 0xDE SWAP6 SWAP5 SWAP4 SWAP3 SWAP2 SWAP1 PUSH2 0xDB2 JUMP JUMPDEST PUSH1 0x40 MLOAD DUP1 SWAP2 SUB SWAP1 RETURN JUMPDEST PUSH2 0x101 PUSH1 0x4 DUP1 CALLDATASIZE SUB DUP2 ADD SWAP1 PUSH2 0xFC SWAP2 SWAP1 PUSH2 0xB21 JUMP JUMPDEST PUSH2 0x657 JUMP JUMPDEST STOP JUMPDEST PUSH2 0x11D PUSH1 0x4 DUP1 CALLDATASIZE SUB DUP2 ADD SWAP1 PUSH2 0x118 SWAP2 SWAP1 PUSH2 0xAF8 JUMP JUMPDEST PUSH2 0x6AE JUMP JUMPDEST PUSH1 0x40 MLOAD PUSH2 0x12A SWAP2 SWAP1 PUSH2 0xE3C JUMP JUMPDEST PUSH1 0x40 MLOAD DUP1 SWAP2 SUB SWAP1 RETURN JUMPDEST PUSH2 0x13B PUSH2 0x74E JUMP JUMPDEST PUSH1 0x40 MLOAD PUSH2 0x148 SWAP2 SWAP1 PUSH2 0xE1A JUMP JUMPDEST PUSH1 0x40 MLOAD DUP1 SWAP2 SUB SWAP1 RETURN JUMPDEST PUSH1 0x60 PUSH1 0x1 PUSH1 0x0 DUP4 PUSH20 0xFFFFFFFFFFFFFFFFFFFFFFFFFFFFFFFFFFFFFFFF AND PUSH20 0xFFFFFFFFFFFFFFFFFFFFFFFFFFFFFFFFFFFFFFFF AND DUP2 MSTORE PUSH1 0x20 ADD SWAP1 DUP2 MSTORE PUSH1 0x20 ADD PUSH1 0x0 KECCAK256 DUP1 SLOAD PUSH2 0x19D SWAP1 PUSH2 0xFF2 JUMP JUMPDEST DUP1 PUSH1 0x1F ADD PUSH1 0x20 DUP1 SWAP2 DIV MUL PUSH1 0x20 ADD PUSH1 0x40 MLOAD SWAP1 DUP2 ADD PUSH1 0x40 MSTORE DUP1 SWAP3 SWAP2 SWAP1 DUP2 DUP2 MSTORE PUSH1 0x20 ADD DUP3 DUP1 SLOAD PUSH2 0x1C9 SWAP1 PUSH2 0xFF2 JUMP JUMPDEST DUP1 ISZERO PUSH2 0x216 JUMPI DUP1 PUSH1 0x1F LT PUSH2 0x1EB JUMPI PUSH2 0x100 DUP1 DUP4 SLOAD DIV MUL DUP4 MSTORE SWAP2 PUSH1 0x20 ADD SWAP2 PUSH2 0x216 JUMP JUMPDEST DUP3 ADD SWAP2 SWAP1 PUSH1 0x0 MSTORE PUSH1 0x20 PUSH1 0x0 KECCAK256 SWAP1 JUMPDEST DUP2 SLOAD DUP2 MSTORE SWAP1 PUSH1 0x1 ADD SWAP1 PUSH1 0x20 ADD DUP1 DUP4 GT PUSH2 0x1F9 JUMPI DUP3 SWAP1 SUB PUSH1 0x1F AND DUP3 ADD SWAP2 JUMPDEST POP POP POP POP POP SWAP1 POP SWAP2 SWAP1 POP JUMP JUMPDEST PUSH1 0x0 PUSH1 0x1 PUSH1 0x0 CALLER PUSH20 0xFFFFFFFFFFFFFFFFFFFFFFFFFFFFFFFFFFFFFFFF AND PUSH20 0xFFFFFFFFFFFFFFFFFFFFFFFFFFFFFFFFFFFFFFFF AND DUP2 MSTORE PUSH1 0x20 ADD SWAP1 DUP2 MSTORE PUSH1 0x20 ADD PUSH1 0x0 KECCAK256 DUP1 SLOAD PUSH2 0x26E SWAP1 PUSH2 0xFF2 JUMP JUMPDEST DUP1 PUSH1 0x1F ADD PUSH1 0x20 DUP1 SWAP2 DIV MUL PUSH1 0x20 ADD PUSH1 0x40 MLOAD SWAP1 DUP2 ADD PUSH1 0x40 MSTORE DUP1 SWAP3 SWAP2 SWAP1 DUP2 DUP2 MSTORE PUSH1 0x20 ADD DUP3 DUP1 SLOAD PUSH2 0x29A SWAP1 PUSH2 0xFF2 JUMP JUMPDEST DUP1 ISZERO PUSH2 0x2E7 JUMPI DUP1 PUSH1 0x1F LT PUSH2 0x2BC JUMPI PUSH2 0x100 DUP1 DUP4 SLOAD DIV MUL DUP4 MSTORE SWAP2 PUSH1 0x20 ADD SWAP2 PUSH2 0x2E7 JUMP JUMPDEST DUP3 ADD SWAP2 SWAP1 PUSH1 0x0 MSTORE PUSH1 0x20 PUSH1 0x0 KECCAK256 SWAP1 JUMPDEST DUP2 SLOAD DUP2 MSTORE SWAP1 PUSH1 0x1 ADD SWAP1 PUSH1 0x20 ADD DUP1 DUP4 GT PUSH2 0x2CA JUMPI DUP3 SWAP1 SUB PUSH1 0x1F AND DUP3 ADD SWAP2 JUMPDEST POP POP POP POP POP SWAP1 POP PUSH1 0x0 PUSH1 0x40 MLOAD DUP1 PUSH1 0xA0 ADD PUSH1 0x40 MSTORE DUP1 CALLER PUSH20 0xFFFFFFFFFFFFFFFFFFFFFFFFFFFFFFFFFFFFFFFF AND DUP2 MSTORE PUSH1 0x20 ADD TIMESTAMP DUP2 MSTORE PUSH1 0x20 ADD DUP6 DUP2 MSTORE PUSH1 0x20 ADD DUP5 DUP2 MSTORE PUSH1 0x20 ADD DUP4 DUP2 MSTORE POP SWAP1 DUP1 PUSH1 0x1 DUP2 SLOAD ADD DUP1 DUP3 SSTORE DUP1 SWAP2 POP POP PUSH1 0x1 SWAP1 SUB SWAP1 PUSH1 0x0 MSTORE PUSH1 0x20 PUSH1 0x0 KECCAK256 SWAP1 PUSH1 0x5 MUL ADD PUSH1 0x0 SWAP1 SWAP2 SWAP1 SWAP2 SWAP1 SWAP2 POP PUSH1 0x0 DUP3 ADD MLOAD DUP2 PUSH1 0x0 ADD PUSH1 0x0 PUSH2 0x100 EXP DUP2 SLOAD DUP2 PUSH20 0xFFFFFFFFFFFFFFFFFFFFFFFFFFFFFFFFFFFFFFFF MUL NOT AND SWAP1 DUP4 PUSH20 0xFFFFFFFFFFFFFFFFFFFFFFFFFFFFFFFFFFFFFFFF AND MUL OR SWAP1 SSTORE POP PUSH1 0x20 DUP3 ADD MLOAD DUP2 PUSH1 0x1 ADD SSTORE PUSH1 0x40 DUP3 ADD MLOAD DUP2 PUSH1 0x2 ADD SWAP1 DUP1 MLOAD SWAP1 PUSH1 0x20 ADD SWAP1 PUSH2 0x3C3 SWAP3 SWAP2 SWAP1 PUSH2 0x9C3 JUMP JUMPDEST POP PUSH1 0x60 DUP3 ADD MLOAD DUP2 PUSH1 0x3 ADD SWAP1 DUP1 MLOAD SWAP1 PUSH1 0x20 ADD SWAP1 PUSH2 0x3E0 SWAP3 SWAP2 SWAP1 PUSH2 0x9C3 JUMP JUMPDEST POP PUSH1 0x80 DUP3 ADD MLOAD DUP2 PUSH1 0x4 ADD SWAP1 DUP1 MLOAD SWAP1 PUSH1 0x20 ADD SWAP1 PUSH2 0x3FD SWAP3 SWAP2 SWAP1 PUSH2 0x9C3 JUMP JUMPDEST POP POP POP CALLER PUSH20 0xFFFFFFFFFFFFFFFFFFFFFFFFFFFFFFFFFFFFFFFF AND PUSH32 0xEE3D00CFEABC7C60F5C3A753B0EB20BBA2E53F7676E3AA13287BF72425B07282 TIMESTAMP DUP6 DUP6 DUP6 PUSH1 0x40 MLOAD PUSH2 0x44C SWAP5 SWAP4 SWAP3 SWAP2 SWAP1 PUSH2 0xE5E JUMP JUMPDEST PUSH1 0x40 MLOAD DUP1 SWAP2 SUB SWAP1 LOG2 POP POP POP JUMP JUMPDEST PUSH1 0x0 DUP2 DUP2 SLOAD DUP2 LT PUSH2 0x469 JUMPI PUSH1 0x0 DUP1 REVERT JUMPDEST SWAP1 PUSH1 0x0 MSTORE PUSH1 0x20 PUSH1 0x0 KECCAK256 SWAP1 PUSH1 0x5 MUL ADD PUSH1 0x0 SWAP2 POP SWAP1 POP DUP1 PUSH1 0x0 ADD PUSH1 0x0 SWAP1 SLOAD SWAP1 PUSH2 0x100 EXP SWAP1 DIV PUSH20 0xFFFFFFFFFFFFFFFFFFFFFFFFFFFFFFFFFFFFFFFF AND SWAP1 DUP1 PUSH1 0x1 ADD SLOAD SWAP1 DUP1 PUSH1 0x2 ADD DUP1 SLOAD PUSH2 0x4B8 SWAP1 PUSH2 0xFF2 JUMP JUMPDEST DUP1 PUSH1 0x1F ADD PUSH1 0x20 DUP1 SWAP2 DIV MUL PUSH1 0x20 ADD PUSH1 0x40 MLOAD SWAP1 DUP2 ADD PUSH1 0x40 MSTORE DUP1 SWAP3 SWAP2 SWAP1 DUP2 DUP2 MSTORE PUSH1 0x20 ADD DUP3 DUP1 SLOAD PUSH2 0x4E4 SWAP1 PUSH2 0xFF2 JUMP JUMPDEST DUP1 ISZERO PUSH2 0x531 JUMPI DUP1 PUSH1 0x1F LT PUSH2 0x506 JUMPI PUSH2 0x100 DUP1 DUP4 SLOAD DIV MUL DUP4 MSTORE SWAP2 PUSH1 0x20 ADD SWAP2 PUSH2 0x531 JUMP JUMPDEST DUP3 ADD SWAP2 SWAP1 PUSH1 0x0 MSTORE PUSH1 0x20 PUSH1 0x0 KECCAK256 SWAP1 JUMPDEST DUP2 SLOAD DUP2 MSTORE SWAP1 PUSH1 0x1 ADD SWAP1 PUSH1 0x20 ADD DUP1 DUP4 GT PUSH2 0x514 JUMPI DUP3 SWAP1 SUB PUSH1 0x1F AND DUP3 ADD SWAP2 JUMPDEST POP POP POP POP POP SWAP1 DUP1 PUSH1 0x3 ADD DUP1 SLOAD PUSH2 0x546 SWAP1 PUSH2 0xFF2 JUMP JUMPDEST DUP1 PUSH1 0x1F ADD PUSH1 0x20 DUP1 SWAP2 DIV MUL PUSH1 0x20 ADD PUSH1 0x40 MLOAD SWAP1 DUP2 ADD PUSH1 0x40 MSTORE DUP1 SWAP3 SWAP2 SWAP1 DUP2 DUP2 MSTORE PUSH1 0x20 ADD DUP3 DUP1 SLOAD PUSH2 0x572 SWAP1 PUSH2 0xFF2 JUMP JUMPDEST DUP1 ISZERO PUSH2 0x5BF JUMPI DUP1 PUSH1 0x1F LT PUSH2 0x594 JUMPI PUSH2 0x100 DUP1 DUP4 SLOAD DIV MUL DUP4 MSTORE SWAP2 PUSH1 0x20 ADD SWAP2 PUSH2 0x5BF JUMP JUMPDEST DUP3 ADD SWAP2 SWAP1 PUSH1 0x0 MSTORE PUSH1 0x20 PUSH1 0x0 KECCAK256 SWAP1 JUMPDEST DUP2 SLOAD DUP2 MSTORE SWAP1 PUSH1 0x1 ADD SWAP1 PUSH1 0x20 ADD DUP1 DUP4 GT PUSH2 0x5A2 JUMPI DUP3 SWAP1 SUB PUSH1 0x1F AND DUP3 ADD SWAP2 JUMPDEST POP POP POP POP POP SWAP1 DUP1 PUSH1 0x4 ADD DUP1 SLOAD PUSH2 0x5D4 SWAP1 PUSH2 0xFF2 JUMP JUMPDEST DUP1 PUSH1 0x1F ADD PUSH1 0x20 DUP1 SWAP2 DIV MUL PUSH1 0x20 ADD PUSH1 0x40 MLOAD SWAP1 DUP2 ADD PUSH1 0x40 MSTORE DUP1 SWAP3 SWAP2 SWAP1 DUP2 DUP2 MSTORE PUSH1 0x20 ADD DUP3 DUP1 SLOAD PUSH2 0x600 SWAP1 PUSH2 0xFF2 JUMP JUMPDEST DUP1 ISZERO PUSH2 0x64D JUMPI DUP1 PUSH1 0x1F LT PUSH2 0x622 JUMPI PUSH2 0x100 DUP1 DUP4 SLOAD DIV MUL DUP4 MSTORE SWAP2 PUSH1 0x20 ADD SWAP2 PUSH2 0x64D JUMP JUMPDEST DUP3 ADD SWAP2 SWAP1 PUSH1 0x0 MSTORE PUSH1 0x20 PUSH1 0x0 KECCAK256 SWAP1 JUMPDEST DUP2 SLOAD DUP2 MSTORE SWAP1 PUSH1 0x1 ADD SWAP1 PUSH1 0x20 ADD DUP1 DUP4 GT PUSH2 0x630 JUMPI DUP3 SWAP1 SUB PUSH1 0x1F AND DUP3 ADD SWAP2 JUMPDEST POP POP POP POP POP SWAP1 POP DUP6 JUMP JUMPDEST DUP1 PUSH1 0x1 PUSH1 0x0 CALLER PUSH20 0xFFFFFFFFFFFFFFFFFFFFFFFFFFFFFFFFFFFFFFFF AND PUSH20 0xFFFFFFFFFFFFFFFFFFFFFFFFFFFFFFFFFFFFFFFF AND DUP2 MSTORE PUSH1 0x20 ADD SWAP1 DUP2 MSTORE PUSH1 0x20 ADD PUSH1 0x0 KECCAK256 SWAP1 DUP1 MLOAD SWAP1 PUSH1 0x20 ADD SWAP1 PUSH2 0x6AA SWAP3 SWAP2 SWAP1 PUSH2 0x9C3 JUMP JUMPDEST POP POP JUMP JUMPDEST PUSH1 0x1 PUSH1 0x20 MSTORE DUP1 PUSH1 0x0 MSTORE PUSH1 0x40 PUSH1 0x0 KECCAK256 PUSH1 0x0 SWAP2 POP SWAP1 POP DUP1 SLOAD PUSH2 0x6CD SWAP1 PUSH2 0xFF2 JUMP JUMPDEST DUP1 PUSH1 0x1F ADD PUSH1 0x20 DUP1 SWAP2 DIV MUL PUSH1 0x20 ADD PUSH1 0x40 MLOAD SWAP1 DUP2 ADD PUSH1 0x40 MSTORE DUP1 SWAP3 SWAP2 SWAP1 DUP2 DUP2 MSTORE PUSH1 0x20 ADD DUP3 DUP1 SLOAD PUSH2 0x6F9 SWAP1 PUSH2 0xFF2 JUMP JUMPDEST DUP1 ISZERO PUSH2 0x746 JUMPI DUP1 PUSH1 0x1F LT PUSH2 0x71B JUMPI PUSH2 0x100 DUP1 DUP4 SLOAD DIV MUL DUP4 MSTORE SWAP2 PUSH1 0x20 ADD SWAP2 PUSH2 0x746 JUMP JUMPDEST DUP3 ADD SWAP2 SWAP1 PUSH1 0x0 MSTORE PUSH1 0x20 PUSH1 0x0 KECCAK256 SWAP1 JUMPDEST DUP2 SLOAD DUP2 MSTORE SWAP1 PUSH1 0x1 ADD SWAP1 PUSH1 0x20 ADD DUP1 DUP4 GT PUSH2 0x729 JUMPI DUP3 SWAP1 SUB PUSH1 0x1F AND DUP3 ADD SWAP2 JUMPDEST POP POP POP POP POP DUP2 JUMP JUMPDEST PUSH1 0x60 PUSH1 0x0 DUP1 SLOAD DUP1 PUSH1 0x20 MUL PUSH1 0x20 ADD PUSH1 0x40 MLOAD SWAP1 DUP2 ADD PUSH1 0x40 MSTORE DUP1 SWAP3 SWAP2 SWAP1 DUP2 DUP2 MSTORE PUSH1 0x20 ADD PUSH1 0x0 SWAP1 JUMPDEST DUP3 DUP3 LT ISZERO PUSH2 0x9BA JUMPI DUP4 DUP3 SWAP1 PUSH1 0x0 MSTORE PUSH1 0x20 PUSH1 0x0 KECCAK256 SWAP1 PUSH1 0x5 MUL ADD PUSH1 0x40 MLOAD DUP1 PUSH1 0xA0 ADD PUSH1 0x40 MSTORE SWAP1 DUP2 PUSH1 0x0 DUP3 ADD PUSH1 0x0 SWAP1 SLOAD SWAP1 PUSH2 0x100 EXP SWAP1 DIV PUSH20 0xFFFFFFFFFFFFFFFFFFFFFFFFFFFFFFFFFFFFFFFF AND PUSH20 0xFFFFFFFFFFFFFFFFFFFFFFFFFFFFFFFFFFFFFFFF AND PUSH20 0xFFFFFFFFFFFFFFFFFFFFFFFFFFFFFFFFFFFFFFFF AND DUP2 MSTORE PUSH1 0x20 ADD PUSH1 0x1 DUP3 ADD SLOAD DUP2 MSTORE PUSH1 0x20 ADD PUSH1 0x2 DUP3 ADD DUP1 SLOAD PUSH2 0x805 SWAP1 PUSH2 0xFF2 JUMP JUMPDEST DUP1 PUSH1 0x1F ADD PUSH1 0x20 DUP1 SWAP2 DIV MUL PUSH1 0x20 ADD PUSH1 0x40 MLOAD SWAP1 DUP2 ADD PUSH1 0x40 MSTORE DUP1 SWAP3 SWAP2 SWAP1 DUP2 DUP2 MSTORE PUSH1 0x20 ADD DUP3 DUP1 SLOAD PUSH2 0x831 SWAP1 PUSH2 0xFF2 JUMP JUMPDEST DUP1 ISZERO PUSH2 0x87E JUMPI DUP1 PUSH1 0x1F LT PUSH2 0x853 JUMPI PUSH2 0x100 DUP1 DUP4 SLOAD DIV MUL DUP4 MSTORE SWAP2 PUSH1 0x20 ADD SWAP2 PUSH2 0x87E JUMP JUMPDEST DUP3 ADD SWAP2 SWAP1 PUSH1 0x0 MSTORE PUSH1 0x20 PUSH1 0x0 KECCAK256 SWAP1 JUMPDEST DUP2 SLOAD DUP2 MSTORE SWAP1 PUSH1 0x1 ADD SWAP1 PUSH1 0x20 ADD DUP1 DUP4 GT PUSH2 0x861 JUMPI DUP3 SWAP1 SUB PUSH1 0x1F AND DUP3 ADD SWAP2 JUMPDEST POP POP POP POP POP DUP2 MSTORE PUSH1 0x20 ADD PUSH1 0x3 DUP3 ADD DUP1 SLOAD PUSH2 0x897 SWAP1 PUSH2 0xFF2 JUMP JUMPDEST DUP1 PUSH1 0x1F ADD PUSH1 0x20 DUP1 SWAP2 DIV MUL PUSH1 0x20 ADD PUSH1 0x40 MLOAD SWAP1 DUP2 ADD PUSH1 0x40 MSTORE DUP1 SWAP3 SWAP2 SWAP1 DUP2 DUP2 MSTORE PUSH1 0x20 ADD DUP3 DUP1 SLOAD PUSH2 0x8C3 SWAP1 PUSH2 0xFF2 JUMP JUMPDEST DUP1 ISZERO PUSH2 0x910 JUMPI DUP1 PUSH1 0x1F LT PUSH2 0x8E5 JUMPI PUSH2 0x100 DUP1 DUP4 SLOAD DIV MUL DUP4 MSTORE SWAP2 PUSH1 0x20 ADD SWAP2 PUSH2 0x910 JUMP JUMPDEST DUP3 ADD SWAP2 SWAP1 PUSH1 0x0 MSTORE PUSH1 0x20 PUSH1 0x0 KECCAK256 SWAP1 JUMPDEST DUP2 SLOAD DUP2 MSTORE SWAP1 PUSH1 0x1 ADD SWAP1 PUSH1 0x20 ADD DUP1 DUP4 GT PUSH2 0x8F3 JUMPI DUP3 SWAP1 SUB PUSH1 0x1F AND DUP3 ADD SWAP2 JUMPDEST POP POP POP POP POP DUP2 MSTORE PUSH1 0x20 ADD PUSH1 0x4 DUP3 ADD DUP1 SLOAD PUSH2 0x929 SWAP1 PUSH2 0xFF2 JUMP JUMPDEST DUP1 PUSH1 0x1F ADD PUSH1 0x20 DUP1 SWAP2 DIV MUL PUSH1 0x20 ADD PUSH1 0x40 MLOAD SWAP1 DUP2 ADD PUSH1 0x40 MSTORE DUP1 SWAP3 SWAP2 SWAP1 DUP2 DUP2 MSTORE PUSH1 0x20 ADD DUP3 DUP1 SLOAD PUSH2 0x955 SWAP1 PUSH2 0xFF2 JUMP JUMPDEST DUP1 ISZERO PUSH2 0x9A2 JUMPI DUP1 PUSH1 0x1F LT PUSH2 0x977 JUMPI PUSH2 0x100 DUP1 DUP4 SLOAD DIV MUL DUP4 MSTORE SWAP2 PUSH1 0x20 ADD SWAP2 PUSH2 0x9A2 JUMP JUMPDEST DUP3 ADD SWAP2 SWAP1 PUSH1 0x0 MSTORE PUSH1 0x20 PUSH1 0x0 KECCAK256 SWAP1 JUMPDEST DUP2 SLOAD DUP2 MSTORE SWAP1 PUSH1 0x1 ADD SWAP1 PUSH1 0x20 ADD DUP1 DUP4 GT PUSH2 0x985 JUMPI DUP3 SWAP1 SUB PUSH1 0x1F AND DUP3 ADD SWAP2 JUMPDEST POP POP POP POP POP DUP2 MSTORE POP POP DUP2 MSTORE PUSH1 0x20 ADD SWAP1 PUSH1 0x1 ADD SWAP1 PUSH2 0x772 JUMP JUMPDEST POP POP POP POP SWAP1 POP SWAP1 JUMP JUMPDEST DUP3 DUP1 SLOAD PUSH2 0x9CF SWAP1 PUSH2 0xFF2 JUMP JUMPDEST SWAP1 PUSH1 0x0 MSTORE PUSH1 0x20 PUSH1 0x0 KECCAK256 SWAP1 PUSH1 0x1F ADD PUSH1 0x20 SWAP1 DIV DUP2 ADD SWAP3 DUP3 PUSH2 0x9F1 JUMPI PUSH1 0x0 DUP6 SSTORE PUSH2 0xA38 JUMP JUMPDEST DUP3 PUSH1 0x1F LT PUSH2 0xA0A JUMPI DUP1 MLOAD PUSH1 0xFF NOT AND DUP4 DUP1 ADD OR DUP6 SSTORE PUSH2 0xA38 JUMP JUMPDEST DUP3 DUP1 ADD PUSH1 0x1 ADD DUP6 SSTORE DUP3 ISZERO PUSH2 0xA38 JUMPI SWAP2 DUP3 ADD JUMPDEST DUP3 DUP2 GT ISZERO PUSH2 0xA37 JUMPI DUP3 MLOAD DUP3 SSTORE SWAP2 PUSH1 0x20 ADD SWAP2 SWAP1 PUSH1 0x1 ADD SWAP1 PUSH2 0xA1C JUMP JUMPDEST JUMPDEST POP SWAP1 POP PUSH2 0xA45 SWAP2 SWAP1 PUSH2 0xA49 JUMP JUMPDEST POP SWAP1 JUMP JUMPDEST JUMPDEST DUP1 DUP3 GT ISZERO PUSH2 0xA62 JUMPI PUSH1 0x0 DUP2 PUSH1 0x0 SWAP1 SSTORE POP PUSH1 0x1 ADD PUSH2 0xA4A JUMP JUMPDEST POP SWAP1 JUMP JUMPDEST PUSH1 0x0 PUSH2 0xA79 PUSH2 0xA74 DUP5 PUSH2 0xEDD JUMP JUMPDEST PUSH2 0xEB8 JUMP JUMPDEST SWAP1 POP DUP3 DUP2 MSTORE PUSH1 0x20 DUP2 ADD DUP5 DUP5 DUP5 ADD GT ISZERO PUSH2 0xA91 JUMPI PUSH1 0x0 DUP1 REVERT JUMPDEST PUSH2 0xA9C DUP5 DUP3 DUP6 PUSH2 0xFB0 JUMP JUMPDEST POP SWAP4 SWAP3 POP POP POP JUMP JUMPDEST PUSH1 0x0 DUP2 CALLDATALOAD SWAP1 POP PUSH2 0xAB3 DUP2 PUSH2 0x10C4 JUMP JUMPDEST SWAP3 SWAP2 POP POP JUMP JUMPDEST PUSH1 0x0 DUP3 PUSH1 0x1F DUP4 ADD SLT PUSH2 0xACA JUMPI PUSH1 0x0 DUP1 REVERT JUMPDEST DUP2 CALLDATALOAD PUSH2 0xADA DUP5 DUP3 PUSH1 0x20 DUP7 ADD PUSH2 0xA66 JUMP JUMPDEST SWAP2 POP POP SWAP3 SWAP2 POP POP JUMP JUMPDEST PUSH1 0x0 DUP2 CALLDATALOAD SWAP1 POP PUSH2 0xAF2 DUP2 PUSH2 0x10DB JUMP JUMPDEST SWAP3 SWAP2 POP POP JUMP JUMPDEST PUSH1 0x0 PUSH1 0x20 DUP3 DUP5 SUB SLT ISZERO PUSH2 0xB0A JUMPI PUSH1 0x0 DUP1 REVERT JUMPDEST PUSH1 0x0 PUSH2 0xB18 DUP5 DUP3 DUP6 ADD PUSH2 0xAA4 JUMP JUMPDEST SWAP2 POP POP SWAP3 SWAP2 POP POP JUMP JUMPDEST PUSH1 0x0 PUSH1 0x20 DUP3 DUP5 SUB SLT ISZERO PUSH2 0xB33 JUMPI PUSH1 0x0 DUP1 REVERT JUMPDEST PUSH1 0x0 DUP3 ADD CALLDATALOAD PUSH8 0xFFFFFFFFFFFFFFFF DUP2 GT ISZERO PUSH2 0xB4D JUMPI PUSH1 0x0 DUP1 REVERT JUMPDEST PUSH2 0xB59 DUP5 DUP3 DUP6 ADD PUSH2 0xAB9 JUMP JUMPDEST SWAP2 POP POP SWAP3 SWAP2 POP POP JUMP JUMPDEST PUSH1 0x0 DUP1 PUSH1 0x40 DUP4 DUP6 SUB SLT ISZERO PUSH2 0xB75 JUMPI PUSH1 0x0 DUP1 REVERT JUMPDEST PUSH1 0x0 DUP4 ADD CALLDATALOAD PUSH8 0xFFFFFFFFFFFFFFFF DUP2 GT ISZERO PUSH2 0xB8F JUMPI PUSH1 0x0 DUP1 REVERT JUMPDEST PUSH2 0xB9B DUP6 DUP3 DUP7 ADD PUSH2 0xAB9 JUMP JUMPDEST SWAP3 POP POP PUSH1 0x20 DUP4 ADD CALLDATALOAD PUSH8 0xFFFFFFFFFFFFFFFF DUP2 GT ISZERO PUSH2 0xBB8 JUMPI PUSH1 0x0 DUP1 REVERT JUMPDEST PUSH2 0xBC4 DUP6 DUP3 DUP7 ADD PUSH2 0xAB9 JUMP JUMPDEST SWAP2 POP POP SWAP3 POP SWAP3 SWAP1 POP JUMP JUMPDEST PUSH1 0x0 PUSH1 0x20 DUP3 DUP5 SUB SLT ISZERO PUSH2 0xBE0 JUMPI PUSH1 0x0 DUP1 REVERT JUMPDEST PUSH1 0x0 PUSH2 0xBEE DUP5 DUP3 DUP6 ADD PUSH2 0xAE3 JUMP JUMPDEST SWAP2 POP POP SWAP3 SWAP2 POP POP JUMP JUMPDEST PUSH1 0x0 PUSH2 0xC03 DUP4 DUP4 PUSH2 0xD10 JUMP JUMPDEST SWAP1 POP SWAP3 SWAP2 POP POP JUMP JUMPDEST PUSH2 0xC14 DUP2 PUSH2 0xF74 JUMP JUMPDEST DUP3 MSTORE POP POP JUMP JUMPDEST PUSH2 0xC23 DUP2 PUSH2 0xF74 JUMP JUMPDEST DUP3 MSTORE POP POP JUMP JUMPDEST PUSH1 0x0 PUSH2 0xC34 DUP3 PUSH2 0xF1E JUMP JUMPDEST PUSH2 0xC3E DUP2 DUP6 PUSH2 0xF41 JUMP JUMPDEST SWAP4 POP DUP4 PUSH1 0x20 DUP3 MUL DUP6 ADD PUSH2 0xC50 DUP6 PUSH2 0xF0E JUMP JUMPDEST DUP1 PUSH1 0x0 JUMPDEST DUP6 DUP2 LT ISZERO PUSH2 0xC8C JUMPI DUP5 DUP5 SUB DUP10 MSTORE DUP2 MLOAD PUSH2 0xC6D DUP6 DUP3 PUSH2 0xBF7 JUMP JUMPDEST SWAP5 POP PUSH2 0xC78 DUP4 PUSH2 0xF34 JUMP JUMPDEST SWAP3 POP PUSH1 0x20 DUP11 ADD SWAP10 POP POP PUSH1 0x1 DUP2 ADD SWAP1 POP PUSH2 0xC54 JUMP JUMPDEST POP DUP3 SWAP8 POP DUP8 SWAP6 POP POP POP POP POP POP SWAP3 SWAP2 POP POP JUMP JUMPDEST PUSH1 0x0 PUSH2 0xCA9 DUP3 PUSH2 0xF29 JUMP JUMPDEST PUSH2 0xCB3 DUP2 DUP6 PUSH2 0xF52 JUMP JUMPDEST SWAP4 POP PUSH2 0xCC3 DUP2 DUP6 PUSH1 0x20 DUP7 ADD PUSH2 0xFBF JUMP JUMPDEST PUSH2 0xCCC DUP2 PUSH2 0x10B3 JUMP JUMPDEST DUP5 ADD SWAP2 POP POP SWAP3 SWAP2 POP POP JUMP JUMPDEST PUSH1 0x0 PUSH2 0xCE2 DUP3 PUSH2 0xF29 JUMP JUMPDEST PUSH2 0xCEC DUP2 DUP6 PUSH2 0xF63 JUMP JUMPDEST SWAP4 POP PUSH2 0xCFC DUP2 DUP6 PUSH1 0x20 DUP7 ADD PUSH2 0xFBF JUMP JUMPDEST PUSH2 0xD05 DUP2 PUSH2 0x10B3 JUMP JUMPDEST DUP5 ADD SWAP2 POP POP SWAP3 SWAP2 POP POP JUMP JUMPDEST PUSH1 0x0 PUSH1 0xA0 DUP4 ADD PUSH1 0x0 DUP4 ADD MLOAD PUSH2 0xD28 PUSH1 0x0 DUP7 ADD DUP3 PUSH2 0xC0B JUMP JUMPDEST POP PUSH1 0x20 DUP4 ADD MLOAD PUSH2 0xD3B PUSH1 0x20 DUP7 ADD DUP3 PUSH2 0xD94 JUMP JUMPDEST POP PUSH1 0x40 DUP4 ADD MLOAD DUP5 DUP3 SUB PUSH1 0x40 DUP7 ADD MSTORE PUSH2 0xD53 DUP3 DUP3 PUSH2 0xC9E JUMP JUMPDEST SWAP2 POP POP PUSH1 0x60 DUP4 ADD MLOAD DUP5 DUP3 SUB PUSH1 0x60 DUP7 ADD MSTORE PUSH2 0xD6D DUP3 DUP3 PUSH2 0xC9E JUMP JUMPDEST SWAP2 POP POP PUSH1 0x80 DUP4 ADD MLOAD DUP5 DUP3 SUB PUSH1 0x80 DUP7 ADD MSTORE PUSH2 0xD87 DUP3 DUP3 PUSH2 0xC9E JUMP JUMPDEST SWAP2 POP POP DUP1 SWAP2 POP POP SWAP3 SWAP2 POP POP JUMP JUMPDEST PUSH2 0xD9D DUP2 PUSH2 0xFA6 JUMP JUMPDEST DUP3 MSTORE POP POP JUMP JUMPDEST PUSH2 0xDAC DUP2 PUSH2 0xFA6 JUMP JUMPDEST DUP3 MSTORE POP POP JUMP JUMPDEST PUSH1 0x0 PUSH1 0xA0 DUP3 ADD SWAP1 POP PUSH2 0xDC7 PUSH1 0x0 DUP4 ADD DUP9 PUSH2 0xC1A JUMP JUMPDEST PUSH2 0xDD4 PUSH1 0x20 DUP4 ADD DUP8 PUSH2 0xDA3 JUMP JUMPDEST DUP2 DUP2 SUB PUSH1 0x40 DUP4 ADD MSTORE PUSH2 0xDE6 DUP2 DUP7 PUSH2 0xCD7 JUMP JUMPDEST SWAP1 POP DUP2 DUP2 SUB PUSH1 0x60 DUP4 ADD MSTORE PUSH2 0xDFA DUP2 DUP6 PUSH2 0xCD7 JUMP JUMPDEST SWAP1 POP DUP2 DUP2 SUB PUSH1 0x80 DUP4 ADD MSTORE PUSH2 0xE0E DUP2 DUP5 PUSH2 0xCD7 JUMP JUMPDEST SWAP1 POP SWAP7 SWAP6 POP POP POP POP POP POP JUMP JUMPDEST PUSH1 0x0 PUSH1 0x20 DUP3 ADD SWAP1 POP DUP2 DUP2 SUB PUSH1 0x0 DUP4 ADD MSTORE PUSH2 0xE34 DUP2 DUP5 PUSH2 0xC29 JUMP JUMPDEST SWAP1 POP SWAP3 SWAP2 POP POP JUMP JUMPDEST PUSH1 0x0 PUSH1 0x20 DUP3 ADD SWAP1 POP DUP2 DUP2 SUB PUSH1 0x0 DUP4 ADD MSTORE PUSH2 0xE56 DUP2 DUP5 PUSH2 0xCD7 JUMP JUMPDEST SWAP1 POP SWAP3 SWAP2 POP POP JUMP JUMPDEST PUSH1 0x0 PUSH1 0x80 DUP3 ADD SWAP1 POP PUSH2 0xE73 PUSH1 0x0 DUP4 ADD DUP8 PUSH2 0xDA3 JUMP JUMPDEST DUP2 DUP2 SUB PUSH1 0x20 DUP4 ADD MSTORE PUSH2 0xE85 DUP2 DUP7 PUSH2 0xCD7 JUMP JUMPDEST SWAP1 POP DUP2 DUP2 SUB PUSH1 0x40 DUP4 ADD MSTORE PUSH2 0xE99 DUP2 DUP6 PUSH2 0xCD7 JUMP JUMPDEST SWAP1 POP DUP2 DUP2 SUB PUSH1 0x60 DUP4 ADD MSTORE PUSH2 0xEAD DUP2 DUP5 PUSH2 0xCD7 JUMP JUMPDEST SWAP1 POP SWAP6 SWAP5 POP POP POP POP POP JUMP JUMPDEST PUSH1 0x0 PUSH2 0xEC2 PUSH2 0xED3 JUMP JUMPDEST SWAP1 POP PUSH2 0xECE DUP3 DUP3 PUSH2 0x1024 JUMP JUMPDEST SWAP2 SWAP1 POP JUMP JUMPDEST PUSH1 0x0 PUSH1 0x40 MLOAD SWAP1 POP SWAP1 JUMP JUMPDEST PUSH1 0x0 PUSH8 0xFFFFFFFFFFFFFFFF DUP3 GT ISZERO PUSH2 0xEF8 JUMPI PUSH2 0xEF7 PUSH2 0x1084 JUMP JUMPDEST JUMPDEST PUSH2 0xF01 DUP3 PUSH2 0x10B3 JUMP JUMPDEST SWAP1 POP PUSH1 0x20 DUP2 ADD SWAP1 POP SWAP2 SWAP1 POP JUMP JUMPDEST PUSH1 0x0 DUP2 SWAP1 POP PUSH1 0x20 DUP3 ADD SWAP1 POP SWAP2 SWAP1 POP JUMP JUMPDEST PUSH1 0x0 DUP2 MLOAD SWAP1 POP SWAP2 SWAP1 POP JUMP JUMPDEST PUSH1 0x0 DUP2 MLOAD SWAP1 POP SWAP2 SWAP1 POP JUMP JUMPDEST PUSH1 0x0 PUSH1 0x20 DUP3 ADD SWAP1 POP SWAP2 SWAP1 POP JUMP JUMPDEST PUSH1 0x0 DUP3 DUP3 MSTORE PUSH1 0x20 DUP3 ADD SWAP1 POP SWAP3 SWAP2 POP POP JUMP JUMPDEST PUSH1 0x0 DUP3 DUP3 MSTORE PUSH1 0x20 DUP3 ADD SWAP1 POP SWAP3 SWAP2 POP POP JUMP JUMPDEST PUSH1 0x0 DUP3 DUP3 MSTORE PUSH1 0x20 DUP3 ADD SWAP1 POP SWAP3 SWAP2 POP POP JUMP JUMPDEST PUSH1 0x0 PUSH2 0xF7F DUP3 PUSH2 0xF86 JUMP JUMPDEST SWAP1 POP SWAP2 SWAP1 POP JUMP JUMPDEST PUSH1 0x0 PUSH20 0xFFFFFFFFFFFFFFFFFFFFFFFFFFFFFFFFFFFFFFFF DUP3 AND SWAP1 POP SWAP2 SWAP1 POP JUMP JUMPDEST PUSH1 0x0 DUP2 SWAP1 POP SWAP2 SWAP1 POP JUMP JUMPDEST DUP3 DUP2 DUP4 CALLDATACOPY PUSH1 0x0 DUP4 DUP4 ADD MSTORE POP POP POP JUMP JUMPDEST PUSH1 0x0 JUMPDEST DUP4 DUP2 LT ISZERO PUSH2 0xFDD JUMPI DUP1 DUP3 ADD MLOAD DUP2 DUP5 ADD MSTORE PUSH1 0x20 DUP2 ADD SWAP1 POP PUSH2 0xFC2 JUMP JUMPDEST DUP4 DUP2 GT ISZERO PUSH2 0xFEC JUMPI PUSH1 0x0 DUP5 DUP5 ADD MSTORE JUMPDEST POP POP POP POP JUMP JUMPDEST PUSH1 0x0 PUSH1 0x2 DUP3 DIV SWAP1 POP PUSH1 0x1 DUP3 AND DUP1 PUSH2 0x100A JUMPI PUSH1 0x7F DUP3 AND SWAP2 POP JUMPDEST PUSH1 0x20 DUP3 LT DUP2 EQ ISZERO PUSH2 0x101E JUMPI PUSH2 0x101D PUSH2 0x1055 JUMP JUMPDEST JUMPDEST POP SWAP2 SWAP1 POP JUMP JUMPDEST PUSH2 0x102D DUP3 PUSH2 0x10B3 JUMP JUMPDEST DUP2 ADD DUP2 DUP2 LT PUSH8 0xFFFFFFFFFFFFFFFF DUP3 GT OR ISZERO PUSH2 0x104C JUMPI PUSH2 0x104B PUSH2 0x1084 JUMP JUMPDEST JUMPDEST DUP1 PUSH1 0x40 MSTORE POP POP POP JUMP JUMPDEST PUSH32 0x4E487B7100000000000000000000000000000000000000000000000000000000 PUSH1 0x0 MSTORE PUSH1 0x22 PUSH1 0x4 MSTORE PUSH1 0x24 PUSH1 0x0 REVERT JUMPDEST PUSH32 0x4E487B7100000000000000000000000000000000000000000000000000000000 PUSH1 0x0 MSTORE PUSH1 0x41 PUSH1 0x4 MSTORE PUSH1 0x24 PUSH1 0x0 REVERT JUMPDEST PUSH1 0x0 PUSH1 0x1F NOT PUSH1 0x1F DUP4 ADD AND SWAP1 POP SWAP2 SWAP1 POP JUMP JUMPDEST PUSH2 0x10CD DUP2 PUSH2 0xF74 JUMP JUMPDEST DUP2 EQ PUSH2 0x10D8 JUMPI PUSH1 0x0 DUP1 REVERT JUMPDEST POP JUMP JUMPDEST PUSH2 0x10E4 DUP2 PUSH2 0xFA6 JUMP JUMPDEST DUP2 EQ PUSH2 0x10EF JUMPI PUSH1 0x0 DUP1 REVERT JUMPDEST POP JUMP INVALID LOG2 PUSH5 0x6970667358 0x22 SLT KECCAK256 0xC MSTORE 0x5D 0xCE ORIGIN EXP 0xB8 RETURNDATASIZE PUSH17 0x36EE1F184EF4CC0F31D306ECC121DA9448 0xC2 0xE7 0xDE MULMOD 0xD7 BYTE PUSH5 0x736F6C6343 STOP ADDMOD DIV STOP CALLER "},"methodIdentifiers":{"getLogs()":"fe290ccb","getUsername(address)":"ce43c032","logAccess(string,string)":"d56812bb","logs(uint256)":"e79899bd","setUsername(string)":"ed59313a","usernames(address)":"ee91877c"}}}}}