{
  "_format": "hh-sol-artifact-1",
  "contractName": "SmartHomeSecurity",
  "sourceName": "contracts/SmartHomeSecurity.sol",
  "abi": [
    {
      "anonymous": false,
      "inputs": [
        {
          "indexed": true,
          "internalType": "address",
          "name": "user",
          "type": "address"
        },
        {
          "indexed": false,
          "internalType": "uint256",
          "name": "timestamp",
          "type": "uint256"
        },
        {
          "indexed": false,
          "internalType": "string",
          "name": "deviceID",
          "type": "string"
        },
        {
          "indexed": false,
          "internalType": "string",
          "name": "action",
          "type": "string"
        },
        {
          "indexed": false,
          "internalType": "string",
          "name": "username",
          "type": "string"
        }
      ],
      "name": "AccessAttempt",
      "type": "event"
    },
    {
      "inputs": [],
      "name": "getLogs",
      "outputs": [
        {
          "components": [
            {
              "internalType": "address",
              "name": "user",
              "type": "address"
            },
            {
              "internalType": "uint256",
              "name": "timestamp",
              "type": "uint256"
            },
            {
              "internalType": "string",
              "name": "deviceID",
              "type": "string"
            },
            {
              "internalType": "string",
              "name": "action",
              "type": "string"
            },
            {
              "internalType": "string",
              "name": "username",
              "type": "string"
            }
          ],
          "internalType": "struct SmartHomeSecurity.AccessLog[]",
          "name": "",
          "type": "tuple[]"
        }
      ],
      "stateMutability": "view",
      "type": "function"
    },
    {
      "inputs": [
        {
          "internalType": "address",
          "name": "user",
          "type": "address"
        }
      ],
      "name": "getUsername",
      "outputs": [
        {
          "internalType": "string",
          "name": "",
          "type": "string"
        }
      ],
      "stateMutability": "view",
      "type": "function"
    },
    {
      "inputs": [
        {
          "internalType": "string",
          "name": "deviceID",
          "type": "string"
        },
        {
          "internalType": "string",
          "name": "action",
          "type": "string"
        }
      ],
      "name": "logAccess",
      "outputs": [],
      "stateMutability": "nonpayable",
      "type": "function"
    },
    {
      "inputs": [
        {
          "internalType": "uint256",
          "name": "",
          "type": "uint256"
        }
      ],
      "name": "logs",
      "outputs": [
        {
          "internalType": "address",
          "name": "user",
          "type": "address"
        },
        {
          "internalType": "uint256",
          "name": "timestamp",
          "type": "uint256"
        },
        {
          "internalType": "string",
          "name": "deviceID",
          "type": "string"
        },
        {
          "internalType": "string",
          "name": "action",
          "type": "string"
        },
        {
          "internalType": "string",
          "name": "username",
          "type": "string"
        }
      ],
      "stateMutability": "view",
      "type": "function"
    },
    {
      "inputs": [
        {
          "internalType": "string",
          "name": "_username",
          "type": "string"
        }
      ],
      "name": "setUsername",
      "outputs": [],
      "stateMutability": "nonpayable",
      "type": "function"
    },
    {
      "inputs": [
        {
          "internalType": "address",
          "name": "",
          "type": "address"
        }
      ],
      "name": "usernames",
      "outputs": [
        {
          "internalType": "string",
          "name": "",
          "type": "string"
        }
      ],
      "stateMutability": "view",
      "type": "function"
    }
  ],
  "bytecode": "0x608060405234801561001057600080fd5b50611128806100206000396000f3fe608060405234801561001057600080fd5b50600436106100625760003560e01c8063ce43c03214610067578063d56812bb14610097578063e79899bd146100b3578063ed59313a146100e7578063ee91877c14610103578063fe290ccb14610133575b600080fd5b610081600480360381019061007c9190610af8565b610151565b60405161008e9190610e3c565b60405180910390f35b6100b160048036038101906100ac9190610b62565b610222565b005b6100cd60048036038101906100c89190610bce565b610459565b6040516100de959493929190610db2565b60405180910390f35b61010160048036038101906100fc9190610b21565b610657565b005b61011d60048036038101906101189190610af8565b6106ae565b60405161012a9190610e3c565b60405180910390f35b61013b61074e565b6040516101489190610e1a565b60405180910390f35b6060600160008373ffffffffffffffffffffffffffffffffffffffff1673ffffffffffffffffffffffffffffffffffffffff168152602001908152602001600020805461019d90610ff2565b80601f01602080910402602001604051908101604052809291908181526020018280546101c990610ff2565b80156102165780601f106101eb57610100808354040283529160200191610216565b820191906000526020600020905b8154815290600101906020018083116101f957829003601f168201915b50505050509050919050565b6000600160003373ffffffffffffffffffffffffffffffffffffffff1673ffffffffffffffffffffffffffffffffffffffff168152602001908152602001600020805461026e90610ff2565b80601f016020809104026020016040519081016040528092919081815260200182805461029a90610ff2565b80156102e75780601f106102bc576101008083540402835291602001916102e7565b820191906000526020600020905b8154815290600101906020018083116102ca57829003601f168201915b5050505050905060006040518060a001604052803373ffffffffffffffffffffffffffffffffffffffff16815260200142815260200185815260200184815260200183815250908060018154018082558091505060019003906000526020600020906005020160009091909190915060008201518160000160006101000a81548173ffffffffffffffffffffffffffffffffffffffff021916908373ffffffffffffffffffffffffffffffffffffffff1602179055506020820151816001015560408201518160020190805190602001906103c39291906109c3565b5060608201518160030190805190602001906103e09291906109c3565b5060808201518160040190805190602001906103fd9291906109c3565b5050503373ffffffffffffffffffffffffffffffffffffffff167fee3d00cfeabc7c60f5c3a753b0eb20bba2e53f7676e3aa13287bf72425b072824285858560405161044c9493929190610e5e565b60405180910390a2505050565b6000818154811061046957600080fd5b90600052602060002090600502016000915090508060000160009054906101000a900473ffffffffffffffffffffffffffffffffffffffff16908060010154908060020180546104b890610ff2565b80601f01602080910402602001604051908101604052809291908181526020018280546104e490610ff2565b80156105315780601f1061050657610100808354040283529160200191610531565b820191906000526020600020905b81548152906001019060200180831161051457829003601f168201915b50505050509080600301805461054690610ff2565b80601f016020809104026020016040519081016040528092919081815260200182805461057290610ff2565b80156105bf5780601f10610594576101008083540402835291602001916105bf565b820191906000526020600020905b8154815290600101906020018083116105a257829003601f168201915b5050505050908060040180546105d490610ff2565b80601f016020809104026020016040519081016040528092919081815260200182805461060090610ff2565b801561064d5780601f106106225761010080835404028352916020019161064d565b820191906000526020600020905b81548152906001019060200180831161063057829003601f168201915b5050505050905085565b80600160003373ffffffffffffffffffffffffffffffffffffffff1673ffffffffffffffffffffffffffffffffffffffff16815260200190815260200160002090805190602001906106aa9291906109c3565b5050565b600160205280600052604060002060009150905080546106cd90610ff2565b80601f01602080910402602001604051908101604052809291908181526020018280546106f990610ff2565b80156107465780601f1061071b57610100808354040283529160200191610746565b820191906000526020600020905b81548152906001019060200180831161072957829003601f168201915b505050505081565b60606000805480602002602001604051908101604052809291908181526020016000905b828210156109ba57838290600052602060002090600502016040518060a00160405290816000820160009054906101000a900473ffffffffffffffffffffffffffffffffffffffff1673ffffffffffffffffffffffffffffffffffffffff1673ffffffffffffffffffffffffffffffffffffffff1681526020016001820154815260200160028201805461080590610ff2565b80601f016020809104026020016040519081016040528092919081815260200182805461083190610ff2565b801561087e5780601f106108535761010080835404028352916020019161087e565b820191906000526020600020905b81548152906001019060200180831161086157829003601f168201915b5050505050815260200160038201805461089790610ff2565b80601f01602080910402602001604051908101604052809291908181526020018280546108c390610ff2565b80156109105780601f106108e557610100808354040283529160200191610910565b820191906000526020600020905b8154815290600101906020018083116108f357829003601f168201915b5050505050815260200160048201805461092990610ff2565b80601f016020809104026020016040519081016040528092919081815260200182805461095590610ff2565b80156109a25780601f10610977576101008083540402835291602001916109a2565b820191906000526020600020905b81548152906001019060200180831161098557829003601f168201915b50505050508152505081526020019060010190610772565b50505050905090565b8280546109cf90610ff2565b90600052602060002090601f0160209004810192826109f15760008555610a38565b82601f10610a0a57805160ff1916838001178555610a38565b82800160010185558215610a38579182015b82811115610a37578251825591602001919060010190610a1c565b5b509050610a459190610a49565b5090565b5b80821115610a62576000816000905550600101610a4a565b5090565b6000610a79610a7484610edd565b610eb8565b905082815260208101848484011115610a9157600080fd5b610a9c848285610fb0565b509392505050565b600081359050610ab3816110c4565b92915050565b600082601f830112610aca57600080fd5b8135610ada848260208601610a66565b91505092915050565b600081359050610af2816110db565b92915050565b600060208284031215610b0a57600080fd5b6000610b1884828501610aa4565b91505092915050565b600060208284031215610b3357600080fd5b600082013567ffffffffffffffff811115610b4d57600080fd5b610b5984828501610ab9565b91505092915050565b60008060408385031215610b7557600080fd5b600083013567ffffffffffffffff811115610b8f57600080fd5b610b9b85828601610ab9565b925050602083013567ffffffffffffffff811115610bb857600080fd5b610bc485828601610ab9565b9150509250929050565b600060208284031215610be057600080fd5b6000610bee84828501610ae3565b91505092915050565b6000610c038383610d10565b905092915050565b610c1481610f74565b82525050565b610c2381610f74565b82525050565b6000610c3482610f1e565b610c3e8185610f41565b935083602082028501610c5085610f0e565b8060005b85811015610c8c5784840389528151610c6d8582610bf7565b9450610c7883610f34565b925060208a01995050600181019050610c54565b50829750879550505050505092915050565b6000610ca982610f29565b610cb38185610f52565b9350610cc3818560208601610fbf565b610ccc816110b3565b840191505092915050565b6000610ce282610f29565b610cec8185610f63565b9350610cfc818560208601610fbf565b610d05816110b3565b840191505092915050565b600060a083016000830151610d286000860182610c0b565b506020830151610d3b6020860182610d94565b5060408301518482036040860152610d538282610c9e565b91505060608301518482036060860152610d6d8282610c9e565b91505060808301518482036080860152610d878282610c9e565b9150508091505092915050565b610d9d81610fa6565b82525050565b610dac81610fa6565b82525050565b600060a082019050610dc76000830188610c1a565b610dd46020830187610da3565b8181036040830152610de68186610cd7565b90508181036060830152610dfa8185610cd7565b90508181036080830152610e0e8184610cd7565b90509695505050505050565b60006020820190508181036000830152610e348184610c29565b905092915050565b60006020820190508181036000830152610e568184610cd7565b905092915050565b6000608082019050610e736000830187610da3565b8181036020830152610e858186610cd7565b90508181036040830152610e998185610cd7565b90508181036060830152610ead8184610cd7565b905095945050505050565b6000610ec2610ed3565b9050610ece8282611024565b919050565b6000604051905090565b600067ffffffffffffffff821115610ef857610ef7611084565b5b610f01826110b3565b9050602081019050919050565b6000819050602082019050919050565b600081519050919050565b600081519050919050565b6000602082019050919050565b600082825260208201905092915050565b600082825260208201905092915050565b600082825260208201905092915050565b6000610f7f82610f86565b9050919050565b600073ffffffffffffffffffffffffffffffffffffffff82169050919050565b6000819050919050565b82818337600083830152505050565b60005b83811015610fdd578082015181840152602081019050610fc2565b83811115610fec576000848401525b50505050565b6000600282049050600182168061100a57607f821691505b6020821081141561101e5761101d611055565b5b50919050565b61102d826110b3565b810181811067ffffffffffffffff8211171561104c5761104b611084565b5b80604052505050565b7f4e487b7100000000000000000000000000000000000000000000000000000000600052602260045260246000fd5b7f4e487b7100000000000000000000000000000000000000000000000000000000600052604160045260246000fd5b6000601f19601f8301169050919050565b6110cd81610f74565b81146110d857600080fd5b50565b6110e481610fa6565b81146110ef57600080fd5b5056fea26469706673582212200c525dce320ab83d7036ee1f184ef4cc0f31d306ecc121da9448c2e7de09d71a64736f6c63430008040033",
  "linkReferences": {},
  "deployedLinkReferences": {}
}