{
  "_format": "hh-sol-artifact-1",
  "contractName": "SmartHomeSecurity",
  "sourceName": "contracts/SmartHomeSecurity.sol",
  "abi": [
    {
      "anonymous": false,
      "inputs": [
        {
          "indexed": true,
          "internalType": "address",
          "name": "user",
          "type": "address"
        },
        {
          "indexed": false,
          "internalType": "uint256",
          "name": "timestamp",
          "type": "uint256"
        },
        {
          "indexed": false,
          "internalType": "string",
          "name": "deviceID",
          "type": "string"
        },
        {
          "indexed": false,
          "internalType": "string",
          "name": "action",
          "type": "string"
        }
      ],
      "name": "AccessAttempt",
      "type": "event"
    },
    {
      "inputs": [],
      "name": "getLogs",
      "outputs": [
        {
          "components": [
            {
              "internalType": "address",
              "name": "user",
              "type": "address"
            },
            {
              "internalType": "uint256",
              "name": "timestamp",
              "type": "uint256"
            },
            {
              "internalType": "string",
              "name": "deviceID",
              "type": "string"
            },
            {
              "internalType": "string",
              "name": "action",
              "type": "string"
            }
          ],
          "internalType": "struct SmartHomeSecurity.AccessLog[]",
          "name": "",
          "type": "tuple[]"
        }
      ],
      "stateMutability": "view",
      "type": "function"
    },
    {
      "inputs": [
        {
          "internalType": "string",
          "name": "deviceID",
          "type": "string"
        },
        {
          "internalType": "string",
          "name": "action",
          "type": "string"
        }
      ],
      "name": "logAccess",
      "outputs": [],
      "stateMutability": "nonpayable",
      "type": "function"
    },
    {
      "inputs": [
        {
          "internalType": "uint256",
          "name": "",
          "type": "uint256"
        }
      ],
      "name": "logs",
      "outputs": [
        {
          "internalType": "address",
          "name": "user",
          "type": "address"
        },
        {
          "internalType": "uint256",
          "name": "timestamp",
          "type": "uint256"
        },
        {
          "internalType": "string",
          "name": "deviceID",
          "type": "string"
        },
        {
          "internalType": "string",
          "name": "action",
          "type": "string"
        }
      ],
      "stateMutability": "view",
      "type": "function"
    }
  ],
  "bytecode": "0x608060405234801561001057600080fd5b50610bb4806100206000396000f3fe608060405234801561001057600080fd5b50600436106100415760003560e01c8063d56812bb14610046578063e79899bd14610062578063fe290ccb14610095575b600080fd5b610060600480360381019061005b919061066b565b6100b3565b005b61007c600480360381019061007791906106d7565b6101f8565b60405161008c94939291906108a1565b60405180910390f35b61009d610368565b6040516100aa91906108f4565b60405180910390f35b600060405180608001604052803373ffffffffffffffffffffffffffffffffffffffff16815260200142815260200184815260200183815250908060018154018082558091505060019003906000526020600020906004020160009091909190915060008201518160000160006101000a81548173ffffffffffffffffffffffffffffffffffffffff021916908373ffffffffffffffffffffffffffffffffffffffff16021790555060208201518160010155604082015181600201908051906020019061018292919061054b565b50606082015181600301908051906020019061019f92919061054b565b5050503373ffffffffffffffffffffffffffffffffffffffff167f64ab612e53ef67818eded1072b4eb60ba80c7dddda33f249bae2c963698acaf54284846040516101ec93929190610916565b60405180910390a25050565b6000818154811061020857600080fd5b90600052602060002090600402016000915090508060000160009054906101000a900473ffffffffffffffffffffffffffffffffffffffff169080600101549080600201805461025790610a95565b80601f016020809104026020016040519081016040528092919081815260200182805461028390610a95565b80156102d05780601f106102a5576101008083540402835291602001916102d0565b820191906000526020600020905b8154815290600101906020018083116102b357829003601f168201915b5050505050908060030180546102e590610a95565b80601f016020809104026020016040519081016040528092919081815260200182805461031190610a95565b801561035e5780601f106103335761010080835404028352916020019161035e565b820191906000526020600020905b81548152906001019060200180831161034157829003601f168201915b5050505050905084565b60606000805480602002602001604051908101604052809291908181526020016000905b8282101561054257838290600052602060002090600402016040518060800160405290816000820160009054906101000a900473ffffffffffffffffffffffffffffffffffffffff1673ffffffffffffffffffffffffffffffffffffffff1673ffffffffffffffffffffffffffffffffffffffff1681526020016001820154815260200160028201805461041f90610a95565b80601f016020809104026020016040519081016040528092919081815260200182805461044b90610a95565b80156104985780601f1061046d57610100808354040283529160200191610498565b820191906000526020600020905b81548152906001019060200180831161047b57829003601f168201915b505050505081526020016003820180546104b190610a95565b80601f01602080910402602001604051908101604052809291908181526020018280546104dd90610a95565b801561052a5780601f106104ff5761010080835404028352916020019161052a565b820191906000526020600020905b81548152906001019060200180831161050d57829003601f168201915b5050505050815250508152602001906001019061038c565b50505050905090565b82805461055790610a95565b90600052602060002090601f01602090048101928261057957600085556105c0565b82601f1061059257805160ff19168380011785556105c0565b828001600101855582156105c0579182015b828111156105bf5782518255916020019190600101906105a4565b5b5090506105cd91906105d1565b5090565b5b808211156105ea5760008160009055506001016105d2565b5090565b60006106016105fc84610980565b61095b565b90508281526020810184848401111561061957600080fd5b610624848285610a53565b509392505050565b600082601f83011261063d57600080fd5b813561064d8482602086016105ee565b91505092915050565b60008135905061066581610b67565b92915050565b6000806040838503121561067e57600080fd5b600083013567ffffffffffffffff81111561069857600080fd5b6106a48582860161062c565b925050602083013567ffffffffffffffff8111156106c157600080fd5b6106cd8582860161062c565b9150509250929050565b6000602082840312156106e957600080fd5b60006106f784828501610656565b91505092915050565b600061070c8383610819565b905092915050565b61071d81610a17565b82525050565b61072c81610a17565b82525050565b600061073d826109c1565b61074781856109e4565b935083602082028501610759856109b1565b8060005b8581101561079557848403895281516107768582610700565b9450610781836109d7565b925060208a0199505060018101905061075d565b50829750879550505050505092915050565b60006107b2826109cc565b6107bc81856109f5565b93506107cc818560208601610a62565b6107d581610b56565b840191505092915050565b60006107eb826109cc565b6107f58185610a06565b9350610805818560208601610a62565b61080e81610b56565b840191505092915050565b60006080830160008301516108316000860182610714565b5060208301516108446020860182610883565b506040830151848203604086015261085c82826107a7565b9150506060830151848203606086015261087682826107a7565b9150508091505092915050565b61088c81610a49565b82525050565b61089b81610a49565b82525050565b60006080820190506108b66000830187610723565b6108c36020830186610892565b81810360408301526108d581856107e0565b905081810360608301526108e981846107e0565b905095945050505050565b6000602082019050818103600083015261090e8184610732565b905092915050565b600060608201905061092b6000830186610892565b818103602083015261093d81856107e0565b9050818103604083015261095181846107e0565b9050949350505050565b6000610965610976565b90506109718282610ac7565b919050565b6000604051905090565b600067ffffffffffffffff82111561099b5761099a610b27565b5b6109a482610b56565b9050602081019050919050565b6000819050602082019050919050565b600081519050919050565b600081519050919050565b6000602082019050919050565b600082825260208201905092915050565b600082825260208201905092915050565b600082825260208201905092915050565b6000610a2282610a29565b9050919050565b600073ffffffffffffffffffffffffffffffffffffffff82169050919050565b6000819050919050565b82818337600083830152505050565b60005b83811015610a80578082015181840152602081019050610a65565b83811115610a8f576000848401525b50505050565b60006002820490506001821680610aad57607f821691505b60208210811415610ac157610ac0610af8565b5b50919050565b610ad082610b56565b810181811067ffffffffffffffff82111715610aef57610aee610b27565b5b80604052505050565b7f4e487b7100000000000000000000000000000000000000000000000000000000600052602260045260246000fd5b7f4e487b7100000000000000000000000000000000000000000000000000000000600052604160045260246000fd5b6000601f19601f8301169050919050565b610b7081610a49565b8114610b7b57600080fd5b5056fea2646970667358221220b9f4ed6e11aaa7d3f002fc2b2a59123c5d3cd1d70b51e28799e89339ebc4a04764736f6c63430008040033",
  "linkReferences": {},
  "deployedLinkReferences": {}
}